{
  "contractName": "NftInsuranceDapp",
  "abi": [
    {
      "inputs": [
        {
          "internalType": "uint256",
          "name": "",
          "type": "uint256"
        }
      ],
      "name": "users",
      "outputs": [
        {
          "internalType": "address",
          "name": "user",
          "type": "address"
        },
        {
          "internalType": "uint256",
          "name": "amount",
          "type": "uint256"
        }
      ],
      "stateMutability": "view",
      "type": "function",
      "constant": true
    },
    {
      "inputs": [],
      "name": "createUser",
      "outputs": [],
      "stateMutability": "payable",
      "type": "function",
      "payable": true
    }
  ],
  "bytecode": "0x608060405234801561001057600080fd5b5061029a806100206000396000f3fe6080604052600436106100295760003560e01c806325ad91ce1461002e578063365b98b214610038575b600080fd5b610036610076565b005b34801561004457600080fd5b5061005f600480360381019061005a91906101be565b61012f565b60405161006d92919061023b565b60405180910390f35b600034101561008457600080fd5b600060405180604001604052803373ffffffffffffffffffffffffffffffffffffffff16815260200134815250908060018154018082558091505060019003906000526020600020906002020160009091909190915060008201518160000160006101000a81548173ffffffffffffffffffffffffffffffffffffffff021916908373ffffffffffffffffffffffffffffffffffffffff160217905550602082015181600101555050565b6000818154811061013f57600080fd5b90600052602060002090600202016000915090508060000160009054906101000a900473ffffffffffffffffffffffffffffffffffffffff16908060010154905082565b600080fd5b6000819050919050565b61019b81610188565b81146101a657600080fd5b50565b6000813590506101b881610192565b92915050565b6000602082840312156101d4576101d3610183565b5b60006101e2848285016101a9565b91505092915050565b600073ffffffffffffffffffffffffffffffffffffffff82169050919050565b6000610216826101eb565b9050919050565b6102268161020b565b82525050565b61023581610188565b82525050565b6000604082019050610250600083018561021d565b61025d602083018461022c565b939250505056fea26469706673582212201a97ef7ac2174ac36fc8aee03ec1d4989b3247912ce5441149451227df2f733064736f6c634300080d0033",
  "immutableReferences": {},
  "source": "// SPDX-License-Identifier: MIT\n\npragma solidity ^0.8.0;\n\ncontract NftInsuranceDapp {\n\n\n//define a User\n    struct User {\n        address user;\n        uint amount;\n    }    \n\n// create an array of users\n    User[] public users;\n\n// set a public payable function for user sign-up\n    function createUser() public payable {\n        require(msg.value >= 0);\n        users.push(User(msg.sender, msg.value));\n    }\n\n\n\n\n\n    // function _generateHash(string memory _str) private pure returns (uint) {\n    //     uint hash = uint(keccak256(abi.encodePacked(_str)));\n    //     return hash;\n    // }\n\n    // function signUpUser() public payable {\n\n    // }\n\n}\n",
  "sourcePath": "/Users/andreialexandru/Hackaton/NftInsuranceDapp/contracts/NftInsuranceDapp.sol",
  "compiler": {
    "name": "solc",
    "version": "0.8.13+commit.abaa5c0e.Emscripten.clang"
  },
  "schemaVersion": "3.4.7",
  "updatedAt": "2022-05-11T15:07:02.752Z",
  "networkType": "ethereum",
  "devdoc": {
    "kind": "dev",
    "methods": {},
    "version": 1
  },
  "userdoc": {
    "kind": "user",
    "methods": {},
    "version": 1
  }
}